{
  "contractName": "MyContract",
  "abi": [
    {
      "constant": true,
      "inputs": [],
      "name": "myAddress",
      "outputs": [
        {
          "internalType": "address",
          "name": "",
          "type": "address"
        }
      ],
      "payable": false,
      "stateMutability": "view",
      "type": "function"
    },
    {
      "constant": true,
      "inputs": [],
      "name": "myBytes32",
      "outputs": [
        {
          "internalType": "bytes32",
          "name": "",
          "type": "bytes32"
        }
      ],
      "payable": false,
      "stateMutability": "view",
      "type": "function"
    },
    {
      "constant": true,
      "inputs": [],
      "name": "myInt",
      "outputs": [
        {
          "internalType": "int256",
          "name": "",
          "type": "int256"
        }
      ],
      "payable": false,
      "stateMutability": "view",
      "type": "function"
    },
    {
      "constant": true,
      "inputs": [],
      "name": "myString",
      "outputs": [
        {
          "internalType": "string",
          "name": "",
          "type": "string"
        }
      ],
      "payable": false,
      "stateMutability": "view",
      "type": "function"
    },
    {
      "constant": true,
      "inputs": [],
      "name": "myStruct",
      "outputs": [
        {
          "internalType": "uint256",
          "name": "myUint",
          "type": "uint256"
        },
        {
          "internalType": "string",
          "name": "myString",
          "type": "string"
        }
      ],
      "payable": false,
      "stateMutability": "view",
      "type": "function"
    },
    {
      "constant": true,
      "inputs": [],
      "name": "myUint",
      "outputs": [
        {
          "internalType": "uint256",
          "name": "",
          "type": "uint256"
        }
      ],
      "payable": false,
      "stateMutability": "view",
      "type": "function"
    },
    {
      "constant": true,
      "inputs": [],
      "name": "myUint8",
      "outputs": [
        {
          "internalType": "uint8",
          "name": "",
          "type": "uint8"
        }
      ],
      "payable": false,
      "stateMutability": "view",
      "type": "function"
    },
    {
      "constant": true,
      "inputs": [],
      "name": "getValue",
      "outputs": [
        {
          "internalType": "uint256",
          "name": "",
          "type": "uint256"
        }
      ],
      "payable": false,
      "stateMutability": "pure",
      "type": "function"
    }
  ],
  "bytecode": "0x60806040526001600055600180556001600260006101000a81548160ff021916908360ff1602179055506040518060400160405280601181526020017f4865792c20686f772061726520796f753f00000000000000000000000000000081525060039080519060200190610074929190610176565b507f48656c6c6f20576f726c64000000000000000000000000000000000000000000600455733e1c666cdb7ac0037a44dfa977ed9b72659c9661600560006101000a81548173ffffffffffffffffffffffffffffffffffffffff021916908373ffffffffffffffffffffffffffffffffffffffff1602179055506040518060400160405280600181526020016040518060400160405280600581526020017f48656c6c6f00000000000000000000000000000000000000000000000000000081525081525060066000820151816000015560208201518160010190805190602001906101619291906101f6565b50505034801561017057600080fd5b5061029b565b828054600181600116156101000203166002900490600052602060002090601f016020900481019282601f106101b757805160ff19168380011785556101e5565b828001600101855582156101e5579182015b828111156101e45782518255916020019190600101906101c9565b5b5090506101f29190610276565b5090565b828054600181600116156101000203166002900490600052602060002090601f016020900481019282601f1061023757805160ff1916838001178555610265565b82800160010185558215610265579182015b82811115610264578251825591602001919060010190610249565b5b5090506102729190610276565b5090565b61029891905b8082111561029457600081600090555060010161027c565b5090565b90565b610456806102aa6000396000f3fe608060405234801561001057600080fd5b50600436106100885760003560e01c8063492bfa181161005b578063492bfa18146101315780634b3e7e0c146101b45780638bc9fe6c146101d2578063e2a4b2af1461025c57610088565b806306540f7e1461008d57806320965255146100ab57806326b85ee1146100c95780632cb777a614610113575b600080fd5b610095610280565b6040518082815260200191505060405180910390f35b6100b3610286565b6040518082815260200191505060405180910390f35b6100d1610294565b604051808273ffffffffffffffffffffffffffffffffffffffff1673ffffffffffffffffffffffffffffffffffffffff16815260200191505060405180910390f35b61011b6102ba565b6040518082815260200191505060405180910390f35b6101396102c0565b6040518080602001828103825283818151815260200191508051906020019080838360005b8381101561017957808201518184015260208101905061015e565b50505050905090810190601f1680156101a65780820380516001836020036101000a031916815260200191505b509250505060405180910390f35b6101bc61035e565b6040518082815260200191505060405180910390f35b6101da610364565b6040518083815260200180602001828103825283818151815260200191508051906020019080838360005b83811015610220578082015181840152602081019050610205565b50505050905090810190601f16801561024d5780820380516001836020036101000a031916815260200191505b50935050505060405180910390f35b61026461040e565b604051808260ff1660ff16815260200191505060405180910390f35b60005481565b600080600190508091505090565b600560009054906101000a900473ffffffffffffffffffffffffffffffffffffffff1681565b60015481565b60038054600181600116156101000203166002900480601f0160208091040260200160405190810160405280929190818152602001828054600181600116156101000203166002900480156103565780601f1061032b57610100808354040283529160200191610356565b820191906000526020600020905b81548152906001019060200180831161033957829003601f168201915b505050505081565b60045481565b6006806000015490806001018054600181600116156101000203166002900480601f0160208091040260200160405190810160405280929190818152602001828054600181600116156101000203166002900480156104045780601f106103d957610100808354040283529160200191610404565b820191906000526020600020905b8154815290600101906020018083116103e757829003601f168201915b5050505050905082565b600260009054906101000a900460ff168156fea265627a7a72315820234342646de2d4a063f61ac5f71fe9f63f9473f1e6824c4323bffcdf98c1868764736f6c63430005100032",
  "source": "// SPDX-License-Identifier: MIT\r\npragma solidity >=0.4.22 <0.8.0;\r\n\r\ncontract MyContract {\r\n    /* Variables */\r\n    // State Variables - Stored on BC\r\n    uint256 public myUint = 1;\r\n\r\n    // Local Variables = Local to function\r\n    function getValue() public pure returns (uint256) {\r\n        uint256 value = 1;\r\n        return value;\r\n    }\r\n\r\n    /* Data Types */\r\n    // uint = Cant have a sign (negative)\r\n    // uint8, uint256 (Different sizes)\r\n    int256 public myInt = 1;\r\n    uint8 public myUint8 = 1;\r\n\r\n    // String\r\n    string public myString = \"Hey, how are you?\";\r\n    // Byte 32\r\n    bytes32 public myBytes32 = \"Hello World\";\r\n\r\n    // Address\r\n    address public myAddress = 0x3E1c666cDb7Ac0037a44dfa977eD9B72659c9661;\r\n\r\n    /* Struct */\r\n    // Model any arbitrary data eg. Person vote etc\r\n    struct MyStruct {\r\n        uint256 myUint;\r\n        string myString;\r\n    }\r\n    struct Person {\r\n        uint256 id;\r\n        string name;\r\n    }\r\n\r\n    // How to use the Struct\r\n    MyStruct public myStruct = MyStruct(1, \"Hello\");\r\n}\r\n",
  "sourcePath": "C:/Users/Rosemary.SALAJA/Desktop/Etherum_Dev/ethereum-dev/solidity-tutorial-dUni/contracts/MyContract.sol",
  "compiler": {
    "name": "solc",
    "version": "0.5.16+commit.9c3226ce.Emscripten.clang"
  },
  "schemaVersion": "3.3.1",
  "updatedAt": "2020-10-26T15:33:41.396Z",
  "networkType": "ethereum",
  "devdoc": {
    "methods": {}
  },
  "userdoc": {
    "methods": {}
  }
}