{
  "contractName": "MyContract2",
  "abi": [
    {
      "inputs": [],
      "stateMutability": "nonpayable",
      "type": "constructor"
    },
    {
      "inputs": [
        {
          "internalType": "uint256",
          "name": "",
          "type": "uint256"
        }
      ],
      "name": "numbers",
      "outputs": [
        {
          "internalType": "uint256",
          "name": "",
          "type": "uint256"
        }
      ],
      "stateMutability": "view",
      "type": "function",
      "constant": true
    },
    {
      "inputs": [],
      "name": "owner",
      "outputs": [
        {
          "internalType": "address",
          "name": "",
          "type": "address"
        }
      ],
      "stateMutability": "view",
      "type": "function",
      "constant": true
    },
    {
      "inputs": [
        {
          "internalType": "uint256",
          "name": "_number",
          "type": "uint256"
        }
      ],
      "name": "isEvenNumber",
      "outputs": [
        {
          "internalType": "bool",
          "name": "",
          "type": "bool"
        }
      ],
      "stateMutability": "pure",
      "type": "function",
      "constant": true
    },
    {
      "inputs": [],
      "name": "countEvenNumbers",
      "outputs": [
        {
          "internalType": "uint256",
          "name": "",
          "type": "uint256"
        }
      ],
      "stateMutability": "view",
      "type": "function",
      "constant": true
    },
    {
      "inputs": [],
      "name": "isOwner",
      "outputs": [
        {
          "internalType": "bool",
          "name": "",
          "type": "bool"
        }
      ],
      "stateMutability": "view",
      "type": "function",
      "constant": true
    }
  ],
  "bytecode": "0x6080604052604051806101400160405280600160ff168152602001600260ff168152602001600360ff168152602001600460ff168152602001600560ff168152602001600660ff168152602001600760ff168152602001600860ff168152602001600960ff168152602001600a60ff16815250600090600a6100829291906100d6565b5034801561008f57600080fd5b5033600160006101000a81548173ffffffffffffffffffffffffffffffffffffffff021916908373ffffffffffffffffffffffffffffffffffffffff160217905550610145565b828054828255906000526020600020908101928215610117579160200282015b82811115610116578251829060ff169055916020019190600101906100f6565b5b5090506101249190610128565b5090565b5b80821115610141576000816000905550600101610129565b5090565b6102ad806101546000396000f3fe608060405234801561001057600080fd5b50600436106100575760003560e01c8063306d3e021461005c5780638da5cb5b1461007a5780638f32d59b146100ae578063d39fa233146100ce578063e5054c6914610110575b600080fd5b610064610154565b6040518082815260200191505060405180910390f35b6100826101ae565b604051808273ffffffffffffffffffffffffffffffffffffffff16815260200191505060405180910390f35b6100b66101d4565b60405180821515815260200191505060405180910390f35b6100fa600480360360208110156100e457600080fd5b810190808035906020019092919050505061022c565b6040518082815260200191505060405180910390f35b61013c6004803603602081101561012657600080fd5b8101908080359060200190929190505050610250565b60405180821515815260200191505060405180910390f35b6000806000905060005b6000805490508110156101a65761018b6000828154811061017b57fe5b9060005260206000200154610250565b156101995781806001019250505b808060010191505061015e565b508091505090565b600160009054906101000a900473ffffffffffffffffffffffffffffffffffffffff1681565b6000600160009054906101000a900473ffffffffffffffffffffffffffffffffffffffff1673ffffffffffffffffffffffffffffffffffffffff163373ffffffffffffffffffffffffffffffffffffffff1614905090565b6000818154811061023c57600080fd5b906000526020600020016000915090505481565b6000806002838161025d57fe5b06141561026d5760019050610272565b600090505b91905056fea26469706673582212204fcd9c84a4b7914d4f445d3441fe9ea599c1d73bb7b4592b18f447063c568f4e64736f6c63430007040033",
  "immutableReferences": {},
  "source": "// SPDX-License-Identifier: MIT\r\npragma solidity >=0.4.22 <0.8.0;\r\n\r\ncontract MyContract2 {\r\n    /* Conditionals */\r\n    // If, Else\r\n    function isEvenNumber(uint256 _number) public pure returns (bool) {\r\n        if (_number % 2 == 0) {\r\n            return true;\r\n        } else {\r\n            return false;\r\n        }\r\n    }\r\n\r\n    uint256[] public numbers = [1, 2, 3, 4, 5, 6, 7, 8, 9, 10];\r\n\r\n    // Loops\r\n    function countEvenNumbers() public view returns (uint256) {\r\n        uint256 count = 0;\r\n\r\n        for (uint256 i = 0; i < numbers.length; i++) {\r\n            if (isEvenNumber(numbers[i])) {\r\n                count++;\r\n            }\r\n        }\r\n        return count;\r\n    }\r\n\r\n    address public owner;\r\n\r\n    // address public myAddress = 0x827de34013d0d21ed24E550CfB6cAF79d880cfBC;\r\n\r\n    constructor() {\r\n        owner = msg.sender;\r\n        // owner = myAddress;\r\n    }\r\n\r\n    function isOwner() public view returns (bool) {\r\n        return (msg.sender == owner);\r\n    }\r\n}\r\n",
  "sourcePath": "C:/Users/Rosemary.SALAJA/Desktop/Etherum_Dev/ethereum-dev/solidity-tutorial-dUni/contracts/MyContract2.sol",
  "compiler": {
    "name": "solc",
    "version": "0.7.4+commit.3f05b770.Emscripten.clang"
  },
  "schemaVersion": "3.3.1",
  "updatedAt": "2020-10-28T12:20:55.672Z",
  "networkType": "ethereum",
  "devdoc": {
    "kind": "dev",
    "methods": {},
    "version": 1
  },
  "userdoc": {
    "kind": "user",
    "methods": {},
    "version": 1
  }
}