{
  "contractName": "MyContract2",
  "abi": [
    {
      "inputs": [],
      "payable": false,
      "stateMutability": "nonpayable",
      "type": "constructor"
    },
    {
      "constant": true,
      "inputs": [],
      "name": "myAddress",
      "outputs": [
        {
          "internalType": "address",
          "name": "",
          "type": "address"
        }
      ],
      "payable": false,
      "stateMutability": "view",
      "type": "function"
    },
    {
      "constant": true,
      "inputs": [
        {
          "internalType": "uint256",
          "name": "",
          "type": "uint256"
        }
      ],
      "name": "numbers",
      "outputs": [
        {
          "internalType": "uint256",
          "name": "",
          "type": "uint256"
        }
      ],
      "payable": false,
      "stateMutability": "view",
      "type": "function"
    },
    {
      "constant": true,
      "inputs": [],
      "name": "owner",
      "outputs": [
        {
          "internalType": "address",
          "name": "",
          "type": "address"
        }
      ],
      "payable": false,
      "stateMutability": "view",
      "type": "function"
    },
    {
      "constant": true,
      "inputs": [
        {
          "internalType": "uint256",
          "name": "_number",
          "type": "uint256"
        }
      ],
      "name": "isEvenNumber",
      "outputs": [
        {
          "internalType": "bool",
          "name": "",
          "type": "bool"
        }
      ],
      "payable": false,
      "stateMutability": "pure",
      "type": "function"
    },
    {
      "constant": true,
      "inputs": [],
      "name": "countEvenNumbers",
      "outputs": [
        {
          "internalType": "uint256",
          "name": "",
          "type": "uint256"
        }
      ],
      "payable": false,
      "stateMutability": "view",
      "type": "function"
    },
    {
      "constant": true,
      "inputs": [],
      "name": "isOwner",
      "outputs": [
        {
          "internalType": "bool",
          "name": "",
          "type": "bool"
        }
      ],
      "payable": false,
      "stateMutability": "view",
      "type": "function"
    }
  ],
  "bytecode": "0x6080604052604051806101400160405280600160ff168152602001600260ff168152602001600360ff168152602001600460ff168152602001600560ff168152602001600660ff168152602001600760ff168152602001600860ff168152602001600960ff168152602001600a60ff16815250600090600a61008292919061014d565b5073827de34013d0d21ed24e550cfb6caf79d880cfbc600260006101000a81548173ffffffffffffffffffffffffffffffffffffffff021916908373ffffffffffffffffffffffffffffffffffffffff1602179055503480156100e457600080fd5b50600260009054906101000a900473ffffffffffffffffffffffffffffffffffffffff16600160006101000a81548173ffffffffffffffffffffffffffffffffffffffff021916908373ffffffffffffffffffffffffffffffffffffffff1602179055506101c4565b82805482825590600052602060002090810192821561018e579160200282015b8281111561018d578251829060ff1690559160200191906001019061016d565b5b50905061019b919061019f565b5090565b6101c191905b808211156101bd5760008160009055506001016101a5565b5090565b90565b610341806101d36000396000f3fe608060405234801561001057600080fd5b50600436106100625760003560e01c806326b85ee114610067578063306d3e02146100b15780638da5cb5b146100cf5780638f32d59b14610119578063d39fa2331461013b578063e5054c691461017d575b600080fd5b61006f6101c3565b604051808273ffffffffffffffffffffffffffffffffffffffff1673ffffffffffffffffffffffffffffffffffffffff16815260200191505060405180910390f35b6100b96101e9565b6040518082815260200191505060405180910390f35b6100d7610246565b604051808273ffffffffffffffffffffffffffffffffffffffff1673ffffffffffffffffffffffffffffffffffffffff16815260200191505060405180910390f35b61012161026c565b604051808215151515815260200191505060405180910390f35b6101676004803603602081101561015157600080fd5b81019080803590602001909291905050506102c4565b6040518082815260200191505060405180910390f35b6101a96004803603602081101561019357600080fd5b81019080803590602001909291905050506102e5565b604051808215151515815260200191505060405180910390f35b600260009054906101000a900473ffffffffffffffffffffffffffffffffffffffff1681565b6000806000905060008090505b60008054905081101561023e576102236000828154811061021357fe5b90600052602060002001546102e5565b156102315781806001019250505b80806001019150506101f6565b508091505090565b600160009054906101000a900473ffffffffffffffffffffffffffffffffffffffff1681565b6000600160009054906101000a900473ffffffffffffffffffffffffffffffffffffffff1673ffffffffffffffffffffffffffffffffffffffff163373ffffffffffffffffffffffffffffffffffffffff1614905090565b600081815481106102d157fe5b906000526020600020016000915090505481565b600080600283816102f257fe5b0614156103025760019050610307565b600090505b91905056fea265627a7a723158200c60ed2a26cd7b1c53e5332aa4409f4afc9e2c47aef89985be474b4f599ceeb364736f6c63430005100032",
  "source": "// SPDX-License-Identifier: MIT\r\npragma solidity >=0.4.22 <0.8.0;\r\n\r\ncontract MyContract2 {\r\n    /* Conditionals */\r\n    // If, Else\r\n    function isEvenNumber(uint256 _number) public pure returns (bool) {\r\n        if (_number % 2 == 0) {\r\n            return true;\r\n        } else {\r\n            return false;\r\n        }\r\n    }\r\n\r\n    uint256[] public numbers = [1, 2, 3, 4, 5, 6, 7, 8, 9, 10];\r\n\r\n    // Loops\r\n    function countEvenNumbers() public view returns (uint256) {\r\n        uint256 count = 0;\r\n\r\n        for (uint256 i = 0; i < numbers.length; i++) {\r\n            if (isEvenNumber(numbers[i])) {\r\n                count++;\r\n            }\r\n        }\r\n        return count;\r\n    }\r\n\r\n    address public owner;\r\n    address public myAddress = 0x827de34013d0d21ed24E550CfB6cAF79d880cfBC;\r\n\r\n    constructor() public {\r\n        owner = myAddress;\r\n    }\r\n\r\n    function isOwner() public view returns (bool) {\r\n        return (msg.sender == owner);\r\n    }\r\n}\r\n",
  "sourcePath": "C:/Users/Rosemary.SALAJA/Desktop/Etherum_Dev/ethereum-dev/solidity-tutorial-dUni/contracts/MyContract2.sol",
  "compiler": {
    "name": "solc",
    "version": "0.5.16+commit.9c3226ce.Emscripten.clang"
  },
  "schemaVersion": "3.3.1",
  "updatedAt": "2020-10-27T10:30:24.605Z",
  "networkType": "ethereum",
  "devdoc": {
    "methods": {}
  },
  "userdoc": {
    "methods": {}
  }
}