{
  "contractName": "MyContract",
  "abi": [
    {
      "constant": true,
      "inputs": [
        {
          "internalType": "uint256",
          "name": "",
          "type": "uint256"
        },
        {
          "internalType": "uint256",
          "name": "",
          "type": "uint256"
        }
      ],
      "name": "array2D",
      "outputs": [
        {
          "internalType": "uint256",
          "name": "",
          "type": "uint256"
        }
      ],
      "payable": false,
      "stateMutability": "view",
      "type": "function"
    },
    {
      "constant": true,
      "inputs": [],
      "name": "myAddress",
      "outputs": [
        {
          "internalType": "address",
          "name": "",
          "type": "address"
        }
      ],
      "payable": false,
      "stateMutability": "view",
      "type": "function"
    },
    {
      "constant": true,
      "inputs": [
        {
          "internalType": "uint256",
          "name": "",
          "type": "uint256"
        }
      ],
      "name": "myArray",
      "outputs": [
        {
          "internalType": "string",
          "name": "",
          "type": "string"
        }
      ],
      "payable": false,
      "stateMutability": "view",
      "type": "function"
    },
    {
      "constant": true,
      "inputs": [],
      "name": "myBytes32",
      "outputs": [
        {
          "internalType": "bytes32",
          "name": "",
          "type": "bytes32"
        }
      ],
      "payable": false,
      "stateMutability": "view",
      "type": "function"
    },
    {
      "constant": true,
      "inputs": [],
      "name": "myInt",
      "outputs": [
        {
          "internalType": "int256",
          "name": "",
          "type": "int256"
        }
      ],
      "payable": false,
      "stateMutability": "view",
      "type": "function"
    },
    {
      "constant": true,
      "inputs": [],
      "name": "myString",
      "outputs": [
        {
          "internalType": "string",
          "name": "",
          "type": "string"
        }
      ],
      "payable": false,
      "stateMutability": "view",
      "type": "function"
    },
    {
      "constant": true,
      "inputs": [],
      "name": "myStruct",
      "outputs": [
        {
          "internalType": "uint256",
          "name": "myUint",
          "type": "uint256"
        },
        {
          "internalType": "string",
          "name": "myString",
          "type": "string"
        }
      ],
      "payable": false,
      "stateMutability": "view",
      "type": "function"
    },
    {
      "constant": true,
      "inputs": [],
      "name": "myUint",
      "outputs": [
        {
          "internalType": "uint256",
          "name": "",
          "type": "uint256"
        }
      ],
      "payable": false,
      "stateMutability": "view",
      "type": "function"
    },
    {
      "constant": true,
      "inputs": [],
      "name": "myUint8",
      "outputs": [
        {
          "internalType": "uint8",
          "name": "",
          "type": "uint8"
        }
      ],
      "payable": false,
      "stateMutability": "view",
      "type": "function"
    },
    {
      "constant": true,
      "inputs": [
        {
          "internalType": "uint256",
          "name": "",
          "type": "uint256"
        }
      ],
      "name": "stringArray",
      "outputs": [
        {
          "internalType": "string",
          "name": "",
          "type": "string"
        }
      ],
      "payable": false,
      "stateMutability": "view",
      "type": "function"
    },
    {
      "constant": true,
      "inputs": [
        {
          "internalType": "uint256",
          "name": "",
          "type": "uint256"
        }
      ],
      "name": "uintArray",
      "outputs": [
        {
          "internalType": "uint256",
          "name": "",
          "type": "uint256"
        }
      ],
      "payable": false,
      "stateMutability": "view",
      "type": "function"
    },
    {
      "constant": true,
      "inputs": [],
      "name": "getValue",
      "outputs": [
        {
          "internalType": "uint256",
          "name": "",
          "type": "uint256"
        }
      ],
      "payable": false,
      "stateMutability": "pure",
      "type": "function"
    },
    {
      "constant": false,
      "inputs": [
        {
          "internalType": "string",
          "name": "_value",
          "type": "string"
        }
      ],
      "name": "addValue",
      "outputs": [],
      "payable": false,
      "stateMutability": "nonpayable",
      "type": "function"
    },
    {
      "constant": true,
      "inputs": [],
      "name": "valueCount",
      "outputs": [
        {
          "internalType": "uint256",
          "name": "",
          "type": "uint256"
        }
      ],
      "payable": false,
      "stateMutability": "view",
      "type": "function"
    }
  ],
  "bytecode": "0x60806040526001600055600180556001600260006101000a81548160ff021916908360ff1602179055506040518060400160405280601181526020017f4865792c20686f772061726520796f753f0000000000000000000000000000008152506003908051906020019062000076929190620002f7565b507f48656c6c6f20576f726c64000000000000000000000000000000000000000000600455733e1c666cdb7ac0037a44dfa977ed9b72659c9661600560006101000a81548173ffffffffffffffffffffffffffffffffffffffff021916908373ffffffffffffffffffffffffffffffffffffffff1602179055506040518060400160405280600181526020016040518060400160405280600581526020017f48656c6c6f0000000000000000000000000000000000000000000000000000008152508152506006600082015181600001556020820151816001019080519060200190620001659291906200037e565b5050506040518060600160405280600160ff168152602001600260ff168152602001600360ff168152506008906003620001a192919062000405565b5060405180606001604052806040518060400160405280600581526020017f4170706c6500000000000000000000000000000000000000000000000000000081525081526020016040518060400160405280600681526020017f42616e616e61000000000000000000000000000000000000000000000000000081525081526020016040518060400160405280600981526020017f50696e656170706c65000000000000000000000000000000000000000000000081525081525060099060036200026e9291906200045c565b5060405180604001604052806040518060600160405280600160ff168152602001600260ff168152602001600360ff1681525081526020016040518060600160405280600460ff168152602001600560ff168152602001600660ff16815250815250600b906002620002e2929190620004c3565b50348015620002f057600080fd5b5062000675565b828054600181600116156101000203166002900490600052602060002090601f016020900481019282601f106200033a57805160ff19168380011785556200036b565b828001600101855582156200036b579182015b828111156200036a5782518255916020019190600101906200034d565b5b5090506200037a919062000525565b5090565b828054600181600116156101000203166002900490600052602060002090601f016020900481019282601f10620003c157805160ff1916838001178555620003f2565b82800160010185558215620003f2579182015b82811115620003f1578251825591602001919060010190620003d4565b5b50905062000401919062000525565b5090565b82805482825590600052602060002090810192821562000449579160200282015b8281111562000448578251829060ff1690559160200191906001019062000426565b5b50905062000458919062000525565b5090565b828054828255906000526020600020908101928215620004b0579160200282015b82811115620004af5782518290805190602001906200049e9291906200037e565b50916020019190600101906200047d565b5b509050620004bf91906200054d565b5090565b82805482825590600052602060002090810192821562000512579160200282015b828111156200051157825182906003620005009291906200057e565b5091602001919060010190620004e4565b5b509050620005219190620005d5565b5090565b6200054a91905b80821115620005465760008160009055506001016200052c565b5090565b90565b6200057b91905b808211156200057757600081816200056d919062000606565b5060010162000554565b5090565b90565b828054828255906000526020600020908101928215620005c2579160200282015b82811115620005c1578251829060ff169055916020019190600101906200059f565b5b509050620005d1919062000525565b5090565b6200060391905b80821115620005ff5760008181620005f5919062000652565b50600101620005dc565b5090565b90565b50805460018160011615610100020316600290046000825580601f106200062e57506200064f565b601f0160209004906000526020600020908101906200064e919062000525565b5b50565b508054600082559060005260206000209081019062000672919062000525565b50565b610a2b80620006856000396000f3fe608060405234801561001057600080fd5b50600436106100ea5760003560e01c80634b3e7e0c1161008c5780639ae918c7116100665780639ae918c71461043e578063cc3e57d914610480578063d3268fc114610527578063e2a4b2af14610573576100ea565b80634b3e7e0c146102ef5780636422c4c81461030d5780638bc9fe6c146103b4576100ea565b806326eb4dbb116100c857806326eb4dbb146101755780632cb777a6146101935780633a5fbaaa146101b1578063492bfa181461026c576100ea565b806306540f7e146100ef578063209652551461010d57806326b85ee11461012b575b600080fd5b6100f7610597565b6040518082815260200191505060405180910390f35b61011561059d565b6040518082815260200191505060405180910390f35b6101336105ab565b604051808273ffffffffffffffffffffffffffffffffffffffff1673ffffffffffffffffffffffffffffffffffffffff16815260200191505060405180910390f35b61017d6105d1565b6040518082815260200191505060405180910390f35b61019b6105de565b6040518082815260200191505060405180910390f35b61026a600480360360208110156101c757600080fd5b81019080803590602001906401000000008111156101e457600080fd5b8201836020820111156101f657600080fd5b8035906020019184600183028401116401000000008311171561021857600080fd5b91908080601f016020809104026020016040519081016040528093929190818152602001838380828437600081840152601f19601f8201169050808301925050505050505091929192905050506105e4565b005b610274610626565b6040518080602001828103825283818151815260200191508051906020019080838360005b838110156102b4578082015181840152602081019050610299565b50505050905090810190601f1680156102e15780820380516001836020036101000a031916815260200191505b509250505060405180910390f35b6102f76106c4565b6040518082815260200191505060405180910390f35b6103396004803603602081101561032357600080fd5b81019080803590602001909291905050506106ca565b6040518080602001828103825283818151815260200191508051906020019080838360005b8381101561037957808201518184015260208101905061035e565b50505050905090810190601f1680156103a65780820380516001836020036101000a031916815260200191505b509250505060405180910390f35b6103bc610783565b6040518083815260200180602001828103825283818151815260200191508051906020019080838360005b838110156104025780820151818401526020810190506103e7565b50505050905090810190601f16801561042f5780820380516001836020036101000a031916815260200191505b50935050505060405180910390f35b61046a6004803603602081101561045457600080fd5b810190808035906020019092919050505061082d565b6040518082815260200191505060405180910390f35b6104ac6004803603602081101561049657600080fd5b810190808035906020019092919050505061084e565b6040518080602001828103825283818151815260200191508051906020019080838360005b838110156104ec5780820151818401526020810190506104d1565b50505050905090810190601f1680156105195780820380516001836020036101000a031916815260200191505b509250505060405180910390f35b61055d6004803603604081101561053d57600080fd5b810190808035906020019092919080359060200190929190505050610907565b6040518082815260200191505060405180910390f35b61057b61093e565b604051808260ff1660ff16815260200191505060405180910390f35b60005481565b600080600190508091505090565b600560009054906101000a900473ffffffffffffffffffffffffffffffffffffffff1681565b6000600a80549050905090565b60015481565b600a819080600181540180825580915050906001820390600052602060002001600090919290919091509080519060200190610621929190610951565b505050565b60038054600181600116156101000203166002900480601f0160208091040260200160405190810160405280929190818152602001828054600181600116156101000203166002900480156106bc5780601f10610691576101008083540402835291602001916106bc565b820191906000526020600020905b81548152906001019060200180831161069f57829003601f168201915b505050505081565b60045481565b600981815481106106d757fe5b906000526020600020016000915090508054600181600116156101000203166002900480601f01602080910402602001604051908101604052809291908181526020018280546001816001161561010002031660029004801561077b5780601f106107505761010080835404028352916020019161077b565b820191906000526020600020905b81548152906001019060200180831161075e57829003601f168201915b505050505081565b6006806000015490806001018054600181600116156101000203166002900480601f0160208091040260200160405190810160405280929190818152602001828054600181600116156101000203166002900480156108235780601f106107f857610100808354040283529160200191610823565b820191906000526020600020905b81548152906001019060200180831161080657829003601f168201915b5050505050905082565b6008818154811061083a57fe5b906000526020600020016000915090505481565b600a818154811061085b57fe5b906000526020600020016000915090508054600181600116156101000203166002900480601f0160208091040260200160405190810160405280929190818152602001828054600181600116156101000203166002900480156108ff5780601f106108d4576101008083540402835291602001916108ff565b820191906000526020600020905b8154815290600101906020018083116108e257829003601f168201915b505050505081565b600b828154811061091457fe5b90600052602060002001818154811061092957fe5b90600052602060002001600091509150505481565b600260009054906101000a900460ff1681565b828054600181600116156101000203166002900490600052602060002090601f016020900481019282601f1061099257805160ff19168380011785556109c0565b828001600101855582156109c0579182015b828111156109bf5782518255916020019190600101906109a4565b5b5090506109cd91906109d1565b5090565b6109f391905b808211156109ef5760008160009055506001016109d7565b5090565b9056fea265627a7a723158209b9c72bf9c607fb86071247035e776b72989764918c6dbfbcabe35c0085fb2d464736f6c63430005100032",
  "source": "// SPDX-License-Identifier: MIT\r\npragma solidity >=0.4.22 <0.8.0;\r\n\r\ncontract MyContract {\r\n    /* Variables */\r\n    // State Variables - Stored on BC\r\n    uint256 public myUint = 1;\r\n\r\n    // Local Variables = Local to function\r\n    function getValue() public pure returns (uint256) {\r\n        uint256 value = 1;\r\n        return value;\r\n    }\r\n\r\n    /* Data Types */\r\n    // uint = Cant have a sign (negative)\r\n    // uint8, uint256 (Different sizes)\r\n    int256 public myInt = 1;\r\n    uint8 public myUint8 = 1;\r\n\r\n    // String\r\n    string public myString = \"Hey, how are you?\";\r\n    // Byte 32\r\n    bytes32 public myBytes32 = \"Hello World\";\r\n\r\n    // Address\r\n    address public myAddress = 0x3E1c666cDb7Ac0037a44dfa977eD9B72659c9661;\r\n\r\n    /* Struct */\r\n    // Model any arbitrary data eg. Person vote etc\r\n    struct MyStruct {\r\n        uint256 myUint;\r\n        string myString;\r\n    }\r\n    struct Person {\r\n        uint256 id;\r\n        string name;\r\n    }\r\n\r\n    // How to use the Struct\r\n    MyStruct public myStruct = MyStruct(1, \"Hello\");\r\n\r\n    /* Arrays */\r\n    // Storing list of information in order\r\n    uint256[] public uintArray = [1, 2, 3];\r\n    string[] public stringArray = [\"Apple\", \"Banana\", \"Pineapple\"];\r\n    string[] public myArray;\r\n\r\n    // Add to arrays\r\n    function addValue(string memory _value) public {\r\n        myArray.push(_value);\r\n    }\r\n\r\n    // Length of Arrays\r\n    function valueCount() public view returns (uint256) {\r\n        return myArray.length;\r\n    }\r\n\r\n    // 2D Array\r\n    uint[][] public array2D = [[1,2,3], [4,5,6]];\r\n}\r\n",
  "sourcePath": "C:/Users/Rosemary.SALAJA/Desktop/Etherum_Dev/ethereum-dev/solidity-tutorial-dUni/contracts/MyContract.sol",
  "compiler": {
    "name": "solc",
    "version": "0.5.16+commit.9c3226ce.Emscripten.clang"
  },
  "schemaVersion": "3.3.1",
  "updatedAt": "2020-10-26T16:07:15.305Z",
  "networkType": "ethereum",
  "devdoc": {
    "methods": {}
  },
  "userdoc": {
    "methods": {}
  }
}