{
  "contractName": "MyContract",
  "abi": [
    {
      "inputs": [],
      "payable": false,
      "stateMutability": "nonpayable",
      "type": "constructor"
    },
    {
      "constant": true,
      "inputs": [
        {
          "internalType": "uint256",
          "name": "",
          "type": "uint256"
        },
        {
          "internalType": "uint256",
          "name": "",
          "type": "uint256"
        }
      ],
      "name": "array2D",
      "outputs": [
        {
          "internalType": "uint256",
          "name": "",
          "type": "uint256"
        }
      ],
      "payable": false,
      "stateMutability": "view",
      "type": "function"
    },
    {
      "constant": true,
      "inputs": [
        {
          "internalType": "uint256",
          "name": "",
          "type": "uint256"
        }
      ],
      "name": "books",
      "outputs": [
        {
          "internalType": "string",
          "name": "title",
          "type": "string"
        },
        {
          "internalType": "string",
          "name": "Author",
          "type": "string"
        }
      ],
      "payable": false,
      "stateMutability": "view",
      "type": "function"
    },
    {
      "constant": true,
      "inputs": [],
      "name": "myAddress",
      "outputs": [
        {
          "internalType": "address",
          "name": "",
          "type": "address"
        }
      ],
      "payable": false,
      "stateMutability": "view",
      "type": "function"
    },
    {
      "constant": true,
      "inputs": [
        {
          "internalType": "uint256",
          "name": "",
          "type": "uint256"
        }
      ],
      "name": "myArray",
      "outputs": [
        {
          "internalType": "string",
          "name": "",
          "type": "string"
        }
      ],
      "payable": false,
      "stateMutability": "view",
      "type": "function"
    },
    {
      "constant": true,
      "inputs": [
        {
          "internalType": "address",
          "name": "",
          "type": "address"
        },
        {
          "internalType": "uint256",
          "name": "",
          "type": "uint256"
        }
      ],
      "name": "myBooks",
      "outputs": [
        {
          "internalType": "string",
          "name": "title",
          "type": "string"
        },
        {
          "internalType": "string",
          "name": "Author",
          "type": "string"
        }
      ],
      "payable": false,
      "stateMutability": "view",
      "type": "function"
    },
    {
      "constant": true,
      "inputs": [],
      "name": "myBytes32",
      "outputs": [
        {
          "internalType": "bytes32",
          "name": "",
          "type": "bytes32"
        }
      ],
      "payable": false,
      "stateMutability": "view",
      "type": "function"
    },
    {
      "constant": true,
      "inputs": [],
      "name": "myInt",
      "outputs": [
        {
          "internalType": "int256",
          "name": "",
          "type": "int256"
        }
      ],
      "payable": false,
      "stateMutability": "view",
      "type": "function"
    },
    {
      "constant": true,
      "inputs": [],
      "name": "myString",
      "outputs": [
        {
          "internalType": "string",
          "name": "",
          "type": "string"
        }
      ],
      "payable": false,
      "stateMutability": "view",
      "type": "function"
    },
    {
      "constant": true,
      "inputs": [],
      "name": "myStruct",
      "outputs": [
        {
          "internalType": "uint256",
          "name": "myUint",
          "type": "uint256"
        },
        {
          "internalType": "string",
          "name": "myString",
          "type": "string"
        }
      ],
      "payable": false,
      "stateMutability": "view",
      "type": "function"
    },
    {
      "constant": true,
      "inputs": [],
      "name": "myUint",
      "outputs": [
        {
          "internalType": "uint256",
          "name": "",
          "type": "uint256"
        }
      ],
      "payable": false,
      "stateMutability": "view",
      "type": "function"
    },
    {
      "constant": true,
      "inputs": [],
      "name": "myUint8",
      "outputs": [
        {
          "internalType": "uint8",
          "name": "",
          "type": "uint8"
        }
      ],
      "payable": false,
      "stateMutability": "view",
      "type": "function"
    },
    {
      "constant": true,
      "inputs": [
        {
          "internalType": "int256",
          "name": "",
          "type": "int256"
        }
      ],
      "name": "names",
      "outputs": [
        {
          "internalType": "string",
          "name": "",
          "type": "string"
        }
      ],
      "payable": false,
      "stateMutability": "view",
      "type": "function"
    },
    {
      "constant": true,
      "inputs": [
        {
          "internalType": "uint256",
          "name": "",
          "type": "uint256"
        }
      ],
      "name": "stringArray",
      "outputs": [
        {
          "internalType": "string",
          "name": "",
          "type": "string"
        }
      ],
      "payable": false,
      "stateMutability": "view",
      "type": "function"
    },
    {
      "constant": true,
      "inputs": [
        {
          "internalType": "uint256",
          "name": "",
          "type": "uint256"
        }
      ],
      "name": "uintArray",
      "outputs": [
        {
          "internalType": "uint256",
          "name": "",
          "type": "uint256"
        }
      ],
      "payable": false,
      "stateMutability": "view",
      "type": "function"
    },
    {
      "constant": true,
      "inputs": [],
      "name": "getValue",
      "outputs": [
        {
          "internalType": "uint256",
          "name": "",
          "type": "uint256"
        }
      ],
      "payable": false,
      "stateMutability": "pure",
      "type": "function"
    },
    {
      "constant": false,
      "inputs": [
        {
          "internalType": "string",
          "name": "_value",
          "type": "string"
        }
      ],
      "name": "addValue",
      "outputs": [],
      "payable": false,
      "stateMutability": "nonpayable",
      "type": "function"
    },
    {
      "constant": true,
      "inputs": [],
      "name": "valueCount",
      "outputs": [
        {
          "internalType": "uint256",
          "name": "",
          "type": "uint256"
        }
      ],
      "payable": false,
      "stateMutability": "view",
      "type": "function"
    },
    {
      "constant": false,
      "inputs": [
        {
          "internalType": "uint256",
          "name": "_id",
          "type": "uint256"
        },
        {
          "internalType": "string",
          "name": "_title",
          "type": "string"
        },
        {
          "internalType": "string",
          "name": "_author",
          "type": "string"
        }
      ],
      "name": "addBook",
      "outputs": [],
      "payable": false,
      "stateMutability": "nonpayable",
      "type": "function"
    },
    {
      "constant": false,
      "inputs": [
        {
          "internalType": "uint256",
          "name": "_id",
          "type": "uint256"
        },
        {
          "internalType": "string",
          "name": "_title",
          "type": "string"
        },
        {
          "internalType": "string",
          "name": "_author",
          "type": "string"
        }
      ],
      "name": "addMyBook",
      "outputs": [],
      "payable": false,
      "stateMutability": "nonpayable",
      "type": "function"
    }
  ],
  "bytecode": "0x60806040526001600055600180556001600260006101000a81548160ff021916908360ff1602179055506040518060400160405280601181526020017f4865792c20686f772061726520796f753f000000000000000000000000000000815250600390805190602001906200007692919062000417565b507f48656c6c6f20576f726c64000000000000000000000000000000000000000000600455733e1c666cdb7ac0037a44dfa977ed9b72659c9661600560006101000a81548173ffffffffffffffffffffffffffffffffffffffff021916908373ffffffffffffffffffffffffffffffffffffffff1602179055506040518060400160405280600181526020016040518060400160405280600581526020017f48656c6c6f0000000000000000000000000000000000000000000000000000008152508152506006600082015181600001556020820151816001019080519060200190620001659291906200049e565b5050506040518060600160405280600160ff168152602001600260ff168152602001600360ff168152506008906003620001a192919062000525565b5060405180606001604052806040518060400160405280600581526020017f4170706c6500000000000000000000000000000000000000000000000000000081525081526020016040518060400160405280600681526020017f42616e616e61000000000000000000000000000000000000000000000000000081525081526020016040518060400160405280600981526020017f50696e656170706c65000000000000000000000000000000000000000000000081525081525060099060036200026e9291906200057c565b5060405180604001604052806040518060600160405280600160ff168152602001600260ff168152602001600360ff1681525081526020016040518060600160405280600460ff168152602001600560ff168152602001600660ff16815250815250600b906002620002e2929190620005e3565b50348015620002f057600080fd5b506040518060400160405280600681526020017f416e647265770000000000000000000000000000000000000000000000000000815250600c60006001815260200190815260200160002090805190602001906200035092919062000417565b506040518060400160405280600481526020017f42696c6c00000000000000000000000000000000000000000000000000000000815250600c6000600281526020019081526020016000209080519060200190620003b092919062000417565b506040518060400160405280600481526020017f4361726c00000000000000000000000000000000000000000000000000000000815250600c60006003815260200190815260200160002090805190602001906200041092919062000417565b5062000795565b828054600181600116156101000203166002900490600052602060002090601f016020900481019282601f106200045a57805160ff19168380011785556200048b565b828001600101855582156200048b579182015b828111156200048a5782518255916020019190600101906200046d565b5b5090506200049a919062000645565b5090565b828054600181600116156101000203166002900490600052602060002090601f016020900481019282601f10620004e157805160ff191683800117855562000512565b8280016001018555821562000512579182015b8281111562000511578251825591602001919060010190620004f4565b5b50905062000521919062000645565b5090565b82805482825590600052602060002090810192821562000569579160200282015b8281111562000568578251829060ff1690559160200191906001019062000546565b5b50905062000578919062000645565b5090565b828054828255906000526020600020908101928215620005d0579160200282015b82811115620005cf578251829080519060200190620005be9291906200049e565b50916020019190600101906200059d565b5b509050620005df91906200066d565b5090565b82805482825590600052602060002090810192821562000632579160200282015b828111156200063157825182906003620006209291906200069e565b509160200191906001019062000604565b5b509050620006419190620006f5565b5090565b6200066a91905b80821115620006665760008160009055506001016200064c565b5090565b90565b6200069b91905b808211156200069757600081816200068d919062000726565b5060010162000674565b5090565b90565b828054828255906000526020600020908101928215620006e2579160200282015b82811115620006e1578251829060ff16905591602001919060010190620006bf565b5b509050620006f1919062000645565b5090565b6200072391905b808211156200071f576000818162000715919062000772565b50600101620006fc565b5090565b90565b50805460018160011615610100020316600290046000825580601f106200074e57506200076f565b601f0160209004906000526020600020908101906200076e919062000645565b5b50565b508054600082559060005260206000209081019062000792919062000645565b50565b6114fd80620007a56000396000f3fe608060405234801561001057600080fd5b50600436106101215760003560e01c8063492bfa18116100ad5780638bc9fe6c116100715780638bc9fe6c146109905780639ae918c714610a1a578063cc3e57d914610a5c578063d3268fc114610b03578063e2a4b2af14610b4f57610121565b8063492bfa18146105d9578063493ec7071461065c5780634b3e7e0c146107b85780636422c4c8146107d6578063687440461461087d57610121565b806326eb4dbb116100f457806326eb4dbb1461030857806327d3553f146103265780632cb777a6146104595780632e33f28e146104775780633a5fbaaa1461051e57610121565b8063028414f21461012657806306540f7e1461028257806320965255146102a057806326b85ee1146102be575b600080fd5b6102806004803603606081101561013c57600080fd5b81019080803590602001909291908035906020019064010000000081111561016357600080fd5b82018360208201111561017557600080fd5b8035906020019184600183028401116401000000008311171561019757600080fd5b91908080601f016020809104026020016040519081016040528093929190818152602001838380828437600081840152601f19601f820116905080830192505050505050509192919290803590602001906401000000008111156101fa57600080fd5b82018360208201111561020c57600080fd5b8035906020019184600183028401116401000000008311171561022e57600080fd5b91908080601f016020809104026020016040519081016040528093929190818152602001838380828437600081840152601f19601f820116905080830192505050505050509192919290505050610b73565b005b61028a610bdd565b6040518082815260200191505060405180910390f35b6102a8610be3565b6040518082815260200191505060405180910390f35b6102c6610bf1565b604051808273ffffffffffffffffffffffffffffffffffffffff1673ffffffffffffffffffffffffffffffffffffffff16815260200191505060405180910390f35b610310610c17565b6040518082815260200191505060405180910390f35b6103726004803603604081101561033c57600080fd5b81019080803573ffffffffffffffffffffffffffffffffffffffff16906020019092919080359060200190929190505050610c24565b604051808060200180602001838103835285818151815260200191508051906020019080838360005b838110156103b657808201518184015260208101905061039b565b50505050905090810190601f1680156103e35780820380516001836020036101000a031916815260200191505b50838103825284818151815260200191508051906020019080838360005b8381101561041c578082015181840152602081019050610401565b50505050905090810190601f1680156104495780820380516001836020036101000a031916815260200191505b5094505050505060405180910390f35b610461610d85565b6040518082815260200191505060405180910390f35b6104a36004803603602081101561048d57600080fd5b8101908080359060200190929190505050610d8b565b6040518080602001828103825283818151815260200191508051906020019080838360005b838110156104e35780820151818401526020810190506104c8565b50505050905090810190601f1680156105105780820380516001836020036101000a031916815260200191505b509250505060405180910390f35b6105d76004803603602081101561053457600080fd5b810190808035906020019064010000000081111561055157600080fd5b82018360208201111561056357600080fd5b8035906020019184600183028401116401000000008311171561058557600080fd5b91908080601f016020809104026020016040519081016040528093929190818152602001838380828437600081840152601f19601f820116905080830192505050505050509192919290505050610e3b565b005b6105e1610e7d565b6040518080602001828103825283818151815260200191508051906020019080838360005b83811015610621578082015181840152602081019050610606565b50505050905090810190601f16801561064e5780820380516001836020036101000a031916815260200191505b509250505060405180910390f35b6107b66004803603606081101561067257600080fd5b81019080803590602001909291908035906020019064010000000081111561069957600080fd5b8201836020820111156106ab57600080fd5b803590602001918460018302840111640100000000831117156106cd57600080fd5b91908080601f016020809104026020016040519081016040528093929190818152602001838380828437600081840152601f19601f8201169050808301925050505050505091929192908035906020019064010000000081111561073057600080fd5b82018360208201111561074257600080fd5b8035906020019184600183028401116401000000008311171561076457600080fd5b91908080601f016020809104026020016040519081016040528093929190818152602001838380828437600081840152601f19601f820116905080830192505050505050509192919290505050610f1b565b005b6107c0610fc2565b6040518082815260200191505060405180910390f35b610802600480360360208110156107ec57600080fd5b8101908080359060200190929190505050610fc8565b6040518080602001828103825283818151815260200191508051906020019080838360005b83811015610842578082015181840152602081019050610827565b50505050905090810190601f16801561086f5780820380516001836020036101000a031916815260200191505b509250505060405180910390f35b6108a96004803603602081101561089357600080fd5b8101908080359060200190929190505050611081565b604051808060200180602001838103835285818151815260200191508051906020019080838360005b838110156108ed5780820151818401526020810190506108d2565b50505050905090810190601f16801561091a5780820380516001836020036101000a031916815260200191505b50838103825284818151815260200191508051906020019080838360005b83811015610953578082015181840152602081019050610938565b50505050905090810190601f1680156109805780820380516001836020036101000a031916815260200191505b5094505050505060405180910390f35b6109986111d5565b6040518083815260200180602001828103825283818151815260200191508051906020019080838360005b838110156109de5780820151818401526020810190506109c3565b50505050905090810190601f168015610a0b5780820380516001836020036101000a031916815260200191505b50935050505060405180910390f35b610a4660048036036020811015610a3057600080fd5b810190808035906020019092919050505061127f565b6040518082815260200191505060405180910390f35b610a8860048036036020811015610a7257600080fd5b81019080803590602001909291905050506112a0565b6040518080602001828103825283818151815260200191508051906020019080838360005b83811015610ac8578082015181840152602081019050610aad565b50505050905090810190601f168015610af55780820380516001836020036101000a031916815260200191505b509250505060405180910390f35b610b3960048036036040811015610b1957600080fd5b810190808035906020019092919080359060200190929190505050611359565b6040518082815260200191505060405180910390f35b610b57611390565b604051808260ff1660ff16815260200191505060405180910390f35b604051806040016040528083815260200182815250600d60008581526020019081526020016000206000820151816000019080519060200190610bb79291906113a3565b506020820151816001019080519060200190610bd49291906113a3565b50905050505050565b60005481565b600080600190508091505090565b600560009054906101000a900473ffffffffffffffffffffffffffffffffffffffff1681565b6000600a80549050905090565b600e60205281600052604060002060205280600052604060002060009150915050806000018054600181600116156101000203166002900480601f016020809104026020016040519081016040528092919081815260200182805460018160011615610100020316600290048015610cdd5780601f10610cb257610100808354040283529160200191610cdd565b820191906000526020600020905b815481529060010190602001808311610cc057829003601f168201915b505050505090806001018054600181600116156101000203166002900480601f016020809104026020016040519081016040528092919081815260200182805460018160011615610100020316600290048015610d7b5780601f10610d5057610100808354040283529160200191610d7b565b820191906000526020600020905b815481529060010190602001808311610d5e57829003601f168201915b5050505050905082565b60015481565b600c6020528060005260406000206000915090508054600181600116156101000203166002900480601f016020809104026020016040519081016040528092919081815260200182805460018160011615610100020316600290048015610e335780601f10610e0857610100808354040283529160200191610e33565b820191906000526020600020905b815481529060010190602001808311610e1657829003601f168201915b505050505081565b600a819080600181540180825580915050906001820390600052602060002001600090919290919091509080519060200190610e78929190611423565b505050565b60038054600181600116156101000203166002900480601f016020809104026020016040519081016040528092919081815260200182805460018160011615610100020316600290048015610f135780601f10610ee857610100808354040283529160200191610f13565b820191906000526020600020905b815481529060010190602001808311610ef657829003601f168201915b505050505081565b604051806040016040528083815260200182815250600e60003373ffffffffffffffffffffffffffffffffffffffff1673ffffffffffffffffffffffffffffffffffffffff16815260200190815260200160002060008581526020019081526020016000206000820151816000019080519060200190610f9c9291906113a3565b506020820151816001019080519060200190610fb99291906113a3565b50905050505050565b60045481565b60098181548110610fd557fe5b906000526020600020016000915090508054600181600116156101000203166002900480601f0160208091040260200160405190810160405280929190818152602001828054600181600116156101000203166002900480156110795780601f1061104e57610100808354040283529160200191611079565b820191906000526020600020905b81548152906001019060200180831161105c57829003601f168201915b505050505081565b600d602052806000526040600020600091509050806000018054600181600116156101000203166002900480601f01602080910402602001604051908101604052809291908181526020018280546001816001161561010002031660029004801561112d5780601f106111025761010080835404028352916020019161112d565b820191906000526020600020905b81548152906001019060200180831161111057829003601f168201915b505050505090806001018054600181600116156101000203166002900480601f0160208091040260200160405190810160405280929190818152602001828054600181600116156101000203166002900480156111cb5780601f106111a0576101008083540402835291602001916111cb565b820191906000526020600020905b8154815290600101906020018083116111ae57829003601f168201915b5050505050905082565b6006806000015490806001018054600181600116156101000203166002900480601f0160208091040260200160405190810160405280929190818152602001828054600181600116156101000203166002900480156112755780601f1061124a57610100808354040283529160200191611275565b820191906000526020600020905b81548152906001019060200180831161125857829003601f168201915b5050505050905082565b6008818154811061128c57fe5b906000526020600020016000915090505481565b600a81815481106112ad57fe5b906000526020600020016000915090508054600181600116156101000203166002900480601f0160208091040260200160405190810160405280929190818152602001828054600181600116156101000203166002900480156113515780601f1061132657610100808354040283529160200191611351565b820191906000526020600020905b81548152906001019060200180831161133457829003601f168201915b505050505081565b600b828154811061136657fe5b90600052602060002001818154811061137b57fe5b90600052602060002001600091509150505481565b600260009054906101000a900460ff1681565b828054600181600116156101000203166002900490600052602060002090601f016020900481019282601f106113e457805160ff1916838001178555611412565b82800160010185558215611412579182015b828111156114115782518255916020019190600101906113f6565b5b50905061141f91906114a3565b5090565b828054600181600116156101000203166002900490600052602060002090601f016020900481019282601f1061146457805160ff1916838001178555611492565b82800160010185558215611492579182015b82811115611491578251825591602001919060010190611476565b5b50905061149f91906114a3565b5090565b6114c591905b808211156114c15760008160009055506001016114a9565b5090565b9056fea265627a7a723158209204dfb36c72142a73b679592e40e3745993fdb4caa55c8530fc76522577f2d764736f6c63430005100032",
  "source": "// SPDX-License-Identifier: MIT\r\npragma solidity >=0.4.22 <0.8.0;\r\n\r\ncontract MyContract {\r\n    /* Variables */\r\n    // State Variables - Stored on BC\r\n    uint256 public myUint = 1;\r\n\r\n    // Local Variables = Local to function\r\n    function getValue() public pure returns (uint256) {\r\n        uint256 value = 1;\r\n        return value;\r\n    }\r\n\r\n    /* Data Types */\r\n    // uint = Cant have a sign (negative)\r\n    // uint8, uint256 (Different sizes)\r\n    int256 public myInt = 1;\r\n    uint8 public myUint8 = 1;\r\n\r\n    // String\r\n    string public myString = \"Hey, how are you?\";\r\n    // Byte 32\r\n    bytes32 public myBytes32 = \"Hello World\";\r\n\r\n    // Address\r\n    address public myAddress = 0x3E1c666cDb7Ac0037a44dfa977eD9B72659c9661;\r\n\r\n    /* Struct */\r\n    // Model any arbitrary data eg. Person vote etc\r\n    struct MyStruct {\r\n        uint256 myUint;\r\n        string myString;\r\n    }\r\n    struct Person {\r\n        uint256 id;\r\n        string name;\r\n    }\r\n\r\n    // How to use the Struct\r\n    MyStruct public myStruct = MyStruct(1, \"Hello\");\r\n\r\n    /* Arrays */\r\n    // Storing list of information in order\r\n    uint256[] public uintArray = [1, 2, 3];\r\n    string[] public stringArray = [\"Apple\", \"Banana\", \"Pineapple\"];\r\n    string[] public myArray;\r\n\r\n    // Add to arrays\r\n    function addValue(string memory _value) public {\r\n        myArray.push(_value);\r\n    }\r\n\r\n    // Length of Arrays\r\n    function valueCount() public view returns (uint256) {\r\n        return myArray.length;\r\n    }\r\n\r\n    // 2D Array\r\n    uint256[][] public array2D = [[1, 2, 3], [4, 5, 6]];\r\n\r\n    /* Mappings */\r\n    // Key-Value store\r\n    mapping(int256 => string) public names;\r\n\r\n    // DB of books\r\n    struct Book {\r\n        string title;\r\n        string Author;\r\n    }\r\n\r\n    // Mapping of Books\r\n    mapping(uint256 => Book) public books;\r\n\r\n    function addBook(\r\n        uint256 _id,\r\n        string memory _title,\r\n        string memory _author\r\n    ) public {\r\n        books[_id] = Book(_title, _author);\r\n    }\r\n\r\n    // Nested Mappings\r\n    mapping(address => mapping(uint256 => Book)) public myBooks;\r\n\r\n    function addMyBook(\r\n        uint256 _id,\r\n        string memory _title,\r\n        string memory _author\r\n    ) public {\r\n        // msg.sender:  Capture address of person calling the function\r\n        myBooks[msg.sender][_id] = Book(_title, _author);\r\n    }\r\n\r\n    constructor() public {\r\n        names[1] = \"Andrew\";\r\n        names[2] = \"Bill\";\r\n        names[3] = \"Carl\";\r\n    }\r\n}\r\n",
  "sourcePath": "C:/Users/Rosemary.SALAJA/Desktop/Etherum_Dev/ethereum-dev/solidity-tutorial-dUni/contracts/MyContract.sol",
  "compiler": {
    "name": "solc",
    "version": "0.5.16+commit.9c3226ce.Emscripten.clang"
  },
  "schemaVersion": "3.3.1",
  "updatedAt": "2020-10-26T16:34:59.818Z",
  "networkType": "ethereum",
  "devdoc": {
    "methods": {}
  },
  "userdoc": {
    "methods": {}
  }
}